{
    "refundMax" : {
        "_info" : {
            "comment" : "Ori Pomerantz   qbzzt1@gmail.com",
            "filling-rpc-server" : "evm version 1.10.19-stable",
            "filling-tool-version" : "retesteth-0.2.2-testinfo+commit.7e597e14.Linux.g++",
            "generatedTestHash" : "a5afe90a6929fdc11259769548a39c19cb2a9fc0baabde21777542805f4856f0",
            "labels" : {
                "0" : "type0"
            },
            "lllcversion" : "Version: 0.5.14-develop.2022.6.27+commit.401d5358.Linux.g++",
            "solidity" : "Version: 0.8.5+commit.a4f2e591.Linux.g++",
            "source" : "src/GeneralStateTestsFiller/stRefundTest/refundMaxFiller.yml",
            "sourceHash" : "8d10213aa25cf64a3d48027af0db72d916e4d7accce2e7d111f510c042a0e0c0"
        },
        "env" : {
            "currentBaseFee" : "0x03e8",
            "currentCoinbase" : "0x2adc25665018aa1fe0e6bc666dac8fc2697ff9ba",
            "currentDifficulty" : "0x020000",
            "currentGasLimit" : "0x01000000",
            "currentNumber" : "0x01",
            "currentRandom" : "0x0000000000000000000000000000000000000000000000000000000000020000",
            "currentTimestamp" : "0x03e8",
            "previousHash" : "0x5e20a0453cecd065ea59c37ac63e079ee08998b6045136a8ce6635c7912ec0b6"
        },
        "post" : {
            "Berlin" : [
                {
                    "hash" : "0xec18beb1c78038a53167985058ab13a5f40aa2b951b973d50c24e65af1c901cf",
                    "indexes" : {
                        "data" : 0,
                        "gas" : 0,
                        "value" : 0
                    },
                    "logs" : "0x1dcc4de8dec75d7aab85b567b6ccd41ad312451b948a7413f0a142fd40d49347",
                    "txbytes" : "0xf862018203e88327b02894cccccccccccccccccccccccccccccccccccccccc80001ba097a1f1111ae5aca56a8052c009d36c5361e647e448a698923f30bfa442798099a0633196a5eb1f4b6e2d0766cd349fab6501998c455dc036ae44ee4d61d14d9800"
                },
                {
                    "hash" : "0xec18beb1c78038a53167985058ab13a5f40aa2b951b973d50c24e65af1c901cf",
                    "indexes" : {
                        "data" : 1,
                        "gas" : 0,
                        "value" : 0
                    },
                    "logs" : "0x1dcc4de8dec75d7aab85b567b6ccd41ad312451b948a7413f0a142fd40d49347",
                    "txbytes" : "0x01f86401018203e88327b02894cccccccccccccccccccccccccccccccccccccccc8000c080a039a0a692787fa83274937107332a154b786bf2cb1f80d1f20fe49d20da6ba324a0103bb80408321d84a1db211dfc777a640db593e889d6ec52f94d8718db3935c6"
                }
            ],
            "London" : [
                {
                    "hash" : "0xb230d4c3eb1ba2b169c35aab5530b950fec77441352ef743afbb038d0c2317ba",
                    "indexes" : {
                        "data" : 0,
                        "gas" : 0,
                        "value" : 0
                    },
                    "logs" : "0x1dcc4de8dec75d7aab85b567b6ccd41ad312451b948a7413f0a142fd40d49347",
                    "txbytes" : "0xf862018203e88327b02894cccccccccccccccccccccccccccccccccccccccc80001ba097a1f1111ae5aca56a8052c009d36c5361e647e448a698923f30bfa442798099a0633196a5eb1f4b6e2d0766cd349fab6501998c455dc036ae44ee4d61d14d9800"
                },
                {
                    "hash" : "0xb230d4c3eb1ba2b169c35aab5530b950fec77441352ef743afbb038d0c2317ba",
                    "indexes" : {
                        "data" : 1,
                        "gas" : 0,
                        "value" : 0
                    },
                    "logs" : "0x1dcc4de8dec75d7aab85b567b6ccd41ad312451b948a7413f0a142fd40d49347",
                    "txbytes" : "0x01f86401018203e88327b02894cccccccccccccccccccccccccccccccccccccccc8000c080a039a0a692787fa83274937107332a154b786bf2cb1f80d1f20fe49d20da6ba324a0103bb80408321d84a1db211dfc777a640db593e889d6ec52f94d8718db3935c6"
                }
            ],
            "Merge" : [
                {
                    "hash" : "0xb230d4c3eb1ba2b169c35aab5530b950fec77441352ef743afbb038d0c2317ba",
                    "indexes" : {
                        "data" : 0,
                        "gas" : 0,
                        "value" : 0
                    },
                    "logs" : "0x1dcc4de8dec75d7aab85b567b6ccd41ad312451b948a7413f0a142fd40d49347",
                    "txbytes" : "0xf862018203e88327b02894cccccccccccccccccccccccccccccccccccccccc80001ba097a1f1111ae5aca56a8052c009d36c5361e647e448a698923f30bfa442798099a0633196a5eb1f4b6e2d0766cd349fab6501998c455dc036ae44ee4d61d14d9800"
                },
                {
                    "hash" : "0xb230d4c3eb1ba2b169c35aab5530b950fec77441352ef743afbb038d0c2317ba",
                    "indexes" : {
                        "data" : 1,
                        "gas" : 0,
                        "value" : 0
                    },
                    "logs" : "0x1dcc4de8dec75d7aab85b567b6ccd41ad312451b948a7413f0a142fd40d49347",
                    "txbytes" : "0x01f86401018203e88327b02894cccccccccccccccccccccccccccccccccccccccc8000c080a039a0a692787fa83274937107332a154b786bf2cb1f80d1f20fe49d20da6ba324a0103bb80408321d84a1db211dfc777a640db593e889d6ec52f94d8718db3935c6"
                }
            ],
            "ZkEvm" : [
                {
                    "hash" : "0x5d82e0b7fa95270a1cf67b4b81b701f19b5f3c401483b1bee9a2361b83abd3ff",
                    "indexes" : {
                        "data" : 0,
                        "gas" : 0,
                        "value" : 0
                    },
                    "logs" : "0x1dcc4de8dec75d7aab85b567b6ccd41ad312451b948a7413f0a142fd40d49347",
                    "txbytes" : "0xf862018203e88327b02894cccccccccccccccccccccccccccccccccccccccc80001ba097a1f1111ae5aca56a8052c009d36c5361e647e448a698923f30bfa442798099a0633196a5eb1f4b6e2d0766cd349fab6501998c455dc036ae44ee4d61d14d9800"
                }
            ]
        },
        "pre" : {
            "0xa94f5374fce5edbc8e2a8697c15331677e6ebf0b" : {
                "balance" : "0xe8d848b7e8",
                "code" : "0x",
                "nonce" : "0x01",
                "storage" : {
                }
            },
            "0xcccccccccccccccccccccccccccccccccccccccc" : {
                "balance" : "0x0de0b6b3a7640000",
                "code" : "0x6000806000558060015580600255806003558060045580600555806006558060075550",
                "nonce" : "0x01",
                "storage" : {
                    "0x00" : "0x60a7",
                    "0x01" : "0x60a7",
                    "0x02" : "0x60a7",
                    "0x03" : "0x60a7",
                    "0x04" : "0x60a7",
                    "0x05" : "0x60a7",
                    "0x06" : "0x60a7",
                    "0x07" : "0x60a7"
                }
            }
        },
        "transaction" : {
            "accessLists" : [
                null,
                [
                ]
            ],
            "data" : [
                "0x00",
                "0x00"
            ],
            "gasLimit" : [
                "0x27b028"
            ],
            "gasPrice" : "0x03e8",
            "nonce" : "0x01",
            "secretKey" : "0x45a915e4d060149eb4365960e6a7a45f334393093061116b197e3240065ff2d8",
            "sender" : "0xa94f5374fce5edbc8e2a8697c15331677e6ebf0b",
            "to" : "0xcccccccccccccccccccccccccccccccccccccccc",
            "value" : [
                "0x00"
            ]
        }
    }
}